:020000040800F2
:10000000600A0020D1000008691B0008651900087B
:1000100000000000000000000000000000000000E0
:100020000000000000000000000000006D1B000840
:1000300000000000000000006B1B00086F1B0008A0
:10004000E3000008E3000008E3000008E300000804
:10005000E3000008E3000008E3000008790400085A
:10006000E3000008E3000008E3000008E3000008E4
:10007000E3000008E3000008E3000008E3000008D4
:10008000E3000008E300000800000000F11B000886
:10009000E3000008E3000008E3000008E3000008B4
:1000A000E3000008E3000008E30000082D22000838
:1000B000E300000800000000E30000080348854654
:1000C00000F0A0F80048004741270008600A00201F
:1000D0000448804704480047FEE7FEE7FEE7FEE7E6
:1000E000FEE7FEE7EF1B0008BD00000830B50B4639
:1000F000014600202022012409E00D46D5409D4202
:1001000005D31D469540491B254695404019154687
:10011000521E002DF1DC30BDF0B51FB406460020A4
:1001200082B005464024019100901BE001992246CF
:100130000F46304600F020F8049A059B801A99413A
:1001400010D310461946224600F04BF8361A8F415C
:100150000197224601200021009F00F042F8381844
:100160004D4100902046641E0028DFDC019B009872
:100170002946324607B0F0BD10B5202A04DB0846F8
:10018000203AD040002110BD0B46D340D04020245F
:10019000A21A91400843194610BD03460B439B0722
:1001A00003D009E008C9121F08C0042AFAD203E0EC
:1001B0000B780370401C491C521EF9D27047D2B212
:1001C00001E00270401C491EFBD270470022F6E796
:1001D00010B513460A4604461946FFF7F0FF2046BD
:1001E00010BD10B5202A04DB0146203A91400020C2
:1001F00010BD914020239C1A0346E34019439040D0
:1002000010BD0000064C0125064E05E0E36807CC52
:100210002B430C3C98471034B442F7D3FFF752FFFE
:10022000DC3B0008FC3B0008F0B599B00E4604002A
:1002300029D0002E27D0AA216D4629702178697017
:100240006178A9702089010AE970217A29712289CF
:10025000681D6168FFF7A1FF2189481D87B2681CEE
:10026000091D02F009FA010AE9557F1CB9B2685468
:10027000491C88B2552129546846316800780870B5
:10028000012211460FE0052019B0F0BD685CAA28D4
:1002900017D0552815D0CC2813D033689854521C49
:1002A000491C92B289B22089C01D8842EED82189AA
:1002B00001A80330085C31688854521CB2800020C9
:1002C000E2E73768CC23BB54521C92B2401C33681F
:1002D000E4E70000F0B50D46064699B0002464211D
:1002E0004148FFF773FF00203F4903E03268125C8A
:1002F0000A54401CB2888242F8D800200DE03368CE
:10030000195CAA2908D1002803D0411E595CCC29C8
:1003100002D080B2411C0FE0401C8242EFD833492A
:1003200033A001F08BFF032019B0F0BD5F5C552FA7
:1003300008D0AA2F0DD0491C8A42F7D828802B4913
:1003400030A028E00904090CF8D0421C92B26F4694
:1003500012E02980254931A01DE033689C469B5C52
:10036000CC2B04D1521C634692B29B5C5B1E3B5566
:10037000641C521CA4B292B28A42EED3BA78130221
:10038000FA7828809A1896B2B01D844207D0491C8A
:100390002980164926A001F051FF0220C4E7381930
:1003A00069802038817FC07F0902081884B2311D1E
:1003B000384602F061F90346A04206D022460B49B6
:1003C00021A001F03BFF0120AEE7684600782871CC
:1003D000684640786871AE813246391DA868FFF7DB
:1003E000DCFE0020A0E70000C8050020503B00080C
:1003F0005B25735D48656164206572726F72210DC3
:100400000A0000005B25735D6C656E6774683120BF
:100410006572726F72210D0A000000005B25735D2A
:100420006C656E67746830206572726F720D0A00B9
:100430005B25735D6C656E67746832206572726FE0
:1004400072210D0A000000005B25735D636865631F
:100450006B73756D206572726F723A206372632DD3
:100460003E307825782C2063616C5F6372632D3E8B
:1004700030782578210D0A0010B5402000F0A0F951
:10048000802000F09DF9FF20013000F099F910BDA7
:1004900072B6FEE706490020C861064801690422D9
:1004A000114301610169402211430161704700005D
:1004B000A801002000200240064A0021D16106491F
:1004C0000A6902231A430A614861086940221043FD
:1004D00008617047A80100200020024010B5054BBC
:1004E0000022DA61044A1369012423431361018065
:1004F00010BD0000A80100200020024010B50B4AEA
:100500000020D168CB060A4904D5C86902231843E4
:10051000C8611020D3685B0705D5CB69012423434C
:10052000CB6104210843D06010BD000000200240D0
:10053000A801002070B5054600F02CFA0646104CC4
:100540000AE0681C08D0002D04D000F023FA801BBC
:10055000A84201D9032070BDE068C007F1D1E0686E
:10056000800601D52020E060E068C00602D4E06883
:10057000400703D5FFF7C2FF012070BD002070BD0A
:100580000020024030B5014620314B780022022B7A
:1005900004D0042383630A70012030BD03681C6803
:1005A0000E25AC431C6003681C68640864001C6072
:1005B0000123056C1C46C06BAC4044604B700A7054
:1005C000002030BD70B50024014620314A78022A4F
:1005D00003D004218163012416E0026813680E250C
:1005E000AB431360026813685B085B001360012271
:1005F000056C1346AB40C56B6B604A7000220A70F5
:10060000416B002900D08847204670BDF8B50546EB
:1006100023480F46017E012601290BD001210176D6
:100620002868204C012807D02046FFF783FF0028C8
:1006300013D030E00220F8BD2046FFF77BFF0028F2
:1006400029D1FFF727FF2046FFF774FF064616481B
:1006500001690422914301611DE00020C04338601C
:100660006C6812E02046FFF727FF0E48FFF762FF95
:1006700006460D48026902218A430261002E01D01C
:100680003C6008E0012080022418A86881026868A4
:100690000818A042E6D80248002101763046F8BD8D
:1006A000A801002050C30000002002400348016957
:1006B00080221143016100207047000000200240A9
:1006C000F0B51FB407461A480024017E15461E46A1
:1006D000012907D0012101761648FFF72BFF0028DA
:1006E00003D020E0022005B0F0BD012F02D0022F80
:1006F00000D00427220128463146FFF73DFD81B294
:10070000019862001018FFF7E9FE0A48FFF712FF90
:1007100009490A69520852000A61002803D1641C81
:10072000E4B2BC42E6D3024900220A76DBE70000CD
:10073000A801002050C3000000200240064900200C
:100740000A69120607D5054A4A60054A4A600969DE
:10075000090600D5012070470020024023016745AB
:10076000AB89EFCD10B5134A134C402813D0802825
:1007700017D0FF21013188420CD1104600F0FEF85D
:100780000E4920704A78904204D0487000212046DB
:100790002030017610BD4021104600F0EFF8607067
:1007A00004E08021104600F0E9F8A07001F088FF15
:1007B00010BD0000000400481C00002000000020C4
:1007C00010B504494A69024202D04861FFF7CAFFE6
:1007D00010BD000000040140F8B5002303240125EA
:1007E000BAE02E469E40B44632407CD00E79B60721
:1007F000B60F012E01D0022E17D186682746B646C5
:100800005E00B74000967646BE43B646CF68009E6F
:10081000B74076463743876046686746BE430F79E0
:10082000FF06FF0F9F40374347600E79F643B60738
:100830000ED0C6682746B4465E00B646B740664648
:10084000BE43B4468F687646B74066463743C760B6
:100850000E79B607B60F022E14D1DE08B600361890
:100860000096366A5F07B446FE0E0F27B646B740BD
:100870006646BE43B4460F697646B7406646374380
:10088000009E376206682746B4465E00B646B7400B
:100890006646BE430F79B446BF07BF0F7646B740E2
:1008A0006646374307604E68B603B60F53D02D4FE8
:1008B000BE692E43BE61BE699F08F607F60F2A4E39
:1008C000BF00BE190096B6680F27B4469E07360FC4
:1008D000B646B7406646BE430927FF06B446B8424F
:1008E00002D1002710E036E0204FB84201D10127A5
:1008F0000AE01F4FB84201D1022705E01D4FB84260
:1009000001D1032700E005277646B7406646374306
:10091000009EB760184E36684F689643FF0300D5B7
:100920001643154F3E607E684F689643BF0300D55F
:100930001643114F7E60BE684F689643FF0200D594
:1009400016430D4FBE60FE684F689643BF0200D548
:100950001643094AD6605B1C0A681646DE4000D082
:100960003FE7F8BD001002400000014000040048CD
:1009700000080048000C00480004014000690840DD
:1009800000D001207047002A01D081617047816248
:100990007047000001488068704700000400002094
:1009A0000148C06A7047000080F7FF1F0148006BD4
:1009B0007047000080F7FF1F0148406B7047000040
:1009C00080F7FF1F024881680278891881607047AC
:1009D0000400002010B50648016810221143016090
:1009E000032000F007F800F027F8002010BD0000F9
:1009F0000020024070B504460D4D7D202978C000CE
:100A0000FFF774FB01460B480068FFF76FFB00F02F
:100A10008FFB002809D1042C07D200222146401E5A
:100A200000F02AF800206C6070BD012070BD00004D
:100A3000040000201000002008B508488169012248
:100A400011438161816911400091C26901040A4327
:100A5000C261C0690840009008BD0000001002405B
:100A6000002805DBC106C90E012088400149086045
:100A70007047000000E100E010B501F015FC10BD6A
:100A8000F8B505460068394CC00352D5E069002628
:100A9000C00007D4E16920040143E161E16901403C
:100AA0000126009132480168C90510D401688215F9
:100AB00011430160FFF76EFF074604E0FFF76AFF8E
:100AC000C01B642824D82A480068C005F6D5206ACF
:100AD00003273F02384020D06968394081421CD04A
:100AE000206A226AB843012109040A432262226A69
:100AF0008A4322622062C0070FD0FFF74BFF0090AD
:100B000008E0FFF747FF0099411A1A48814201D9CE
:100B10000320F8BD206A8007F3D5206A6968B843CE
:100B200008432062002E04D0E169012000078143C0
:100B3000E1612878C00705D0206BA9688008800093
:100B4000084320632878800605D5206B1021884350
:100B5000E968084320632888400505D5206B4021BB
:100B600088432969084320630020F8BD0010024033
:100B70000070004088130000F8B50F46060059D0F9
:100B80003A4D2868C007C00FB84209D2286840080B
:100B90004000384328602868C007C00FB84249D1D8
:100BA0003068334C81070CD5400704D560680721B5
:100BB0000902084360606068F0218843B168084317
:100BC00060603078C00726D0706801280ED0216898
:100BD00002280ED0890700292CDA6168890889006B
:100BE00001436160FFF7D6FE00900DE021688903A4
:100BF000F1E78901EFE7FFF7CDFE0099411A1D48A3
:100C0000814201D90320F8BD60680C210840716859
:100C100089008842EFD12868C007C00FB8420BD9BD
:100C2000286840084000384328602868C007C00F83
:100C3000B84201D00120F8BD3078400706D5606881
:100C4000072109028843F1680843606000F028F832
:100C50006168094A0906090F515CC84007490860E4
:100C60000320FFF7C7FE0020F8BD0000002002406F
:100C700000100240881300003834000810000020E3
:100C80000448054900684968044A4905490F515C10
:100C9000C84070471000002000100240483400088F
:100CA00010B514A30FCB88B06C460FC415A30FCB9F
:100CB0000FC4184A51680C200B4603401648042BF9
:100CC00016D0082B14D18B021B0F6C46E45CD26A41
:100CD00004AB1207120F9A5CC90305D5002319460D
:100CE000FFF71AFA214601E020460C4901F0B6FA56
:100CF00008B010BD02030405060708090A0B0C0D15
:100D00000E0F10100102030405060708090A0B0C58
:100D10000D0E0F100010024000127A0000093D0075
:100D2000FEB5040070D02078DC4DC0074AD068685A
:100D30000007800F012807D068680007800F02288D
:100D400009D16868C00306D5286880033AD5606871
:100D50000028E7D036E06168012914D00120800422
:100D6000002901D0052914D02A68012109048A43E9
:100D70002A602968814329606068002816D0FFF73F
:100D800009FE06460EE02868012109040843286090
:100D9000F2E7296801432960F5E7FFF7FBFD801BB7
:100DA00064286ED828688003F7D50BE0FFF7F2FDC2
:100DB000064604E0FFF7EEFD801B6428F1D82868A2
:100DC0008003F7D420780126800700283CDA686881
:100DD0000007800F07D068680007800F022809D13C
:100DE0006868C00306D42868800716D5E068012823
:100DF0000AD112E0E0680028286816D03043286045
:100E0000FFF7C8FD074605E043E1FFF7C3FDC01B40
:100E10000228C6D828688007F7D52868F8218843B3
:100E20002169C900084328600EE04008400028609E
:100E3000FFF7B0FD074604E0FFF7ACFDC01B02283A
:100E4000AFD828688007F7D42078000722D5E0695A
:100E50000028686A0ED030436862FFF79BFD0746A2
:100E600004E0FFF797FDC01B02289AD8686A800744
:100E7000F7D50FE0400840006862FFF78BFD07469A
:100E800005E09DE0FFF786FDC01B022889D8686A4F
:100E90008007F7D4207804274007002860DA002074
:100EA0000190E869C00008D4E969B8060143E96126
:100EB000E969014001200091019079480168C90564
:100EC00011D40168821511430160FFF763FD0090A2
:100ED00005E0FFF75FFD0099401A642870D870485C
:100EE0000068C005F5D5A06801280AD0002801D007
:100EF000052810D0286A400840002862286AB843B4
:100F000001E0286A30432862A068002812D0FFF769
:100F100041FD00900AE0286A38432862F1E7FFF7B4
:100F200039FD0099411A5F48814249D8286A8007F3
:100F3000F5D50DE0FFF72EFD009006E0FFF72AFD46
:100F40000099411A574881423AD8286A8007F5D457
:100F50000198002804D0E969012000078143E96174
:100F60002078C00635D5606901280CD0401D686B1B
:100F700023D038436863686B400840006863FFF71C
:100F800009FD064622E0686B38436863686B3043AE
:100F90006863FFF7FFFC064604E0FFF7FBFC801BDD
:100FA00002285BD8686B8007F7D5686BF821884307
:100FB000A169C900084368630BE0B8436863F4E7BC
:100FC0004CE0FFF7E7FC801B022847D8686B8007DE
:100FD000F7D4206A00285ED069680907890F0229C2
:100FE00042D0012636060228286805D0B043286082
:100FF000FFF7D0FC044633E0B0432860FFF7CAFC9B
:10100000074604E0FFF7C6FCC01B022826D8286864
:101010008001F7D4E86AE16A000900010843E86248
:10102000616AA06A084369683D221204914308433B
:101030006860286830432860FFF7ACFC044604E091
:10104000FFF7A8FC001B022808D828688001F7D504
:1010500021E0FFF79FFC001B022801D90320FEBD01
:1010600028688001F5D416E00128F8D06868E96A9C
:1010700001221204636A02409A420AD10907E26A15
:10108000090F914205D10F2189040840A16A8842C5
:1010900001D00120FEBD0020FEBD00000010024076
:1010A0000070004088130000F8B51D4616460F4634
:1010B000040003D0A06F002802D007E00120F8BD93
:1010C000002174200155204600F046FB2420A06733
:1010D00020680168490849000160204600F054FF7B
:1010E0000128ECD0606A002802D0204600F0D2FD32
:1010F0002068816801229203114381602168886819
:1011000052009043384388607105280422680843E0
:101110001168064B194001431160206801680122E3
:1011200011430160204600F01BFEF8BDFFFF00FCEC
:10113000094910B5401E884201D9012010BD074C55
:1011400060610321081F01F0AFF80020A0610720B3
:101150002061002010BD0000FFFFFF0000E000E064
:101160007047704770B5040005D025462035687F6C
:10117000002802D006E0012070BD0020287720461C
:1011800000F014F802206877211D206800F038FD77
:1011900001204034A071A877E87720706070A070BB
:1011A000E070207160716877002070BD08B500683C
:1011B000094988420FD10948C26981150A43C261B1
:1011C000C06900220840009002211320FFF754FC60
:1011D0001320FFF745FC08BD00200040001002402E
:1011E000014620314A7F012A01D0012070470222A6
:1011F0004A770268D36801210B43D36000680B4A29
:10120000904208D08A07904205D0094A904202D005
:10121000084A904204D182685207520F062A02D02F
:1012200002680A430260002070470000002C014061
:101230000004004000400140704770B5044600685B
:1012400001690025C9438907002915DBC168C94325
:10125000890711D4E91E0161012020772068806987
:101260008007204602D0FFF7E7FF04E000F096F881
:10127000204600F094F8257720680169C9434907A2
:1012800017D4C168C943490713D40421C943016174
:1012900002202077206880698005800F204602D0D8
:1012A000FFF7CAFF04E000F079F8204600F077F875
:1012B000257720680169C943090716D4C168C94365
:1012C000090712D40821C94301610420207720684E
:1012D000C0698007204602D0FFF7AEFF04E000F0AF
:1012E0005DF8204600F05BF8257720680169C94366
:1012F000C90617D4C168C943C90613D41021C9430C
:101300000161082020772068C0698005800F204691
:1013100002D0FFF791FF04E000F040F8204600F013
:101320003EF8257720680169C943C90708D1C1681B
:10133000C943C90704D1891E0161204600F030F875
:1013400020680169C943090609D4C168C94309066F
:1013500005D48021C94301612046FFF701FF2068C1
:101360000169C943490609D4C168C943490605D47E
:101370004021C9430161204600F062F820680169FC
:10138000C943890609D4C168C943890605D4202107
:10139000C94301612046FFF7E4FE70BD7047704706
:1013A00010B500682449884236D12448418C002970
:1013B00001D0491E4184C18C002901D0491EC1843D
:1013C000418D002901D0491E4185C18D002901D0E0
:1013D000491EC185418E002901D0491E4186C18E1A
:1013E000002901D0491EC186027B0021002A0CD0B1
:1013F000C2890A24521C92B2C281036963439A4291
:1014000003D30173C181022202710C4A2032137E80
:10141000012B02D05176418710BD438F5B1C1B040A
:101420001B0C4387F8D04187507E002802D0002053
:10143000507610BD0120FBE7002000401C0000207A
:101440007047704770477047F8B502680446D06926
:1014500011689668A24B03401D462023002D75D0CD
:10146000F707A04DFF0FBC460D402F436DD025461A
:10147000C7078035002F06D0CF0504D50127176296
:101480002A683A432A60820708D5F20706D02768FF
:1014900002223A622A6804273A432A60420708D5A2
:1014A000F20706D02668042232622A6802263243F6
:1014B0002A6002070AD50A461A406646324305D01A
:1014C0002668082232622E6816432E60020508D56F
:1014D0004A0106D501222668D20232622A681A43DE
:1014E0002A602A68002A39D0800606D5880604D5E5
:1014F000616E002901D020468847286821688968E4
:10150000490602D4282108422DD0204600F064FC70
:1015100021688868400622D5EFF31080012282F30B
:1015200010888B68402293438B6080F31088206F73
:10153000002814D06C494163206FFFF743F800285E
:101540000CD0206F416B08E000E012E0850610D55A
:101550008D060ED5616EA8E020468847F8BD20466E
:10156000FFF771FFF8BD2046FFF76DFF00202860F0
:10157000F8BD256E012D7DD1C5067BD5CD0679D56B
:1015800010261662226890682546400640350028DD
:1015900045DA216F086840680004000CE8D02F8B02
:1015A0008742E5D968838869202833D0EFF310801B
:1015B000012181F3108811683701B943116080F36C
:1015C0001088EFF31080012181F3108821688A6868
:1015D000520852008A6080F31088EFF310800121D6
:1015E00081F3108821688A684027BA438A6080F3B3
:1015F0001088E36700202066EFF31080012181F35B
:10160000108821680A68B2430A6080F31088206F4E
:10161000FEF7B8FF288B698B401A81B231E0288B26
:10162000698B401A81B2688B0028A1D000299FD015
:10163000EFF31080012585F310881568FF27213707
:10164000BD43156080F31088EFF31080012282F310
:101650001088226895686D086D00956080F3108889
:10166000E367002020666066EFF31080012282F3BA
:10167000108800E009E022681368B343136080F328
:1016800010882046FFF7DDFEF8BDC50208D57502BB
:1016900006D50120000510622046FFF7D3FEF8BDF5
:1016A000050606D50D0604D5A16E002900D053E726
:1016B000F8BD4006FCD54806FAD52046EFF3108168
:1016C000012484F3108815684024A543156081F334
:1016D000108883670021816600F043F9F8BD00009F
:1016E0000F08000020010004C51D000810B504000B
:1016F00003D0A06F002802D007E0012010BD002118
:1017000074200155204600F027F82420A0672068A7
:101710000168490849000160204600F035FC0128B5
:10172000ECD0606A002802D0204600F0B3FA2068AE
:1017300041680922D20291434160206881682A22CF
:1017400091438160206801680122114301602046B5
:1017500000F006FB10BD0000F0B587B00446142170
:101760006846FEF733FD234F0121266800222248F8
:101770004904022303240125BE4221D18769CE10EA
:101780003743876187693740059746690E4346614D
:1017900040690193084005900B204002009002AE82
:1017A00034C609206946C006FFF716F80022114624
:1017B0001B20FFF761F91B20FFF752F907B0F0BDBE
:1017C0000E4FBE42FAD1C6690E43C661C6690E40CD
:1017D000059646690E4346614069019308400590AD
:1017E0000C20009002AE34C609206946C006FEF700
:1017F000F3FFE3E7003801400010024000440040DE
:1018000070B5C36F202B2BD100290BD0002A09D033
:10181000012483682403A34206D10369002B03D16A
:10182000CB0701D0012070BD034660331C7D012C25
:1018300016D001241C7500230366046863681B022C
:101840000BD5EFF31083012585F310882568012659
:10185000B6063543256083F3108800F02FFC70BD79
:10186000022070BD10B500680649884208D10121E8
:10187000054801F071FD012203490448FFF7C0FF4C
:1018800010BD00000038014003000020A00000202F
:10189000FFB50446806F83B017460D4620285ED101
:1018A000002D0AD0002F08D0A168C001814207D1C5
:1018B0002069002804D1E80702D0012007B0F0BD5C
:1018C000204660300090007D012848D0009801211A
:1018D00001750020802108512120A067FFF75AF8E8
:1018E000264640360190378277820120A1680003A6
:1018F000814202D12069002805D02F460025009999
:101900000020087511E00027F9E700228021204619
:1019100000F022FC002815D1002F15D0216838785E
:1019200008857F1C708A401E7082708A019B002887
:1019300006980090E9D100224021204600F00CFCDE
:10194000002808D00320B9E728882168C005C00D09
:101950000885AD1CE6E72020A0670020AEE7022046
:10196000ACE77047FEE7000010B5164C2146227E1A
:1019700020390878002A1BD0012A18D1097A0029B9
:1019800016D0002808D0607E002813D10121002045
:1019900000F02AFE012107E00121002000F024FED2
:1019A000607E0028F6D00021012000F01DFE10BD51
:1019B000002801D00021EAE70121002000F014FEF8
:1019C000F1E700003C00002030B587B014216846E4
:1019D000FEF7FCFB1D484269012149040A434261AC
:1019E00042690A400592426949000A4342614069DE
:1019F000174D08400590012203212846FEF7C3FF3A
:101A0000002218212846FEF7BEFF1B20009001206F
:101A10000190032000240390029469462846FEF7B3
:101A2000DBFEFF20C13000903120000401906946A8
:101A300002942846FEF7D0FE002201210720FFF77E
:101A40001BF80720FFF70CF807B030BD001002406C
:101A50000004004810B50C480A4901607D210022AD
:101A6000C9008260416009490261C16080218161D1
:101A7000FFF778FB002801D0FEF70AFD0248FFF7C8
:101A8000AFFB10BD0020004058000020B104000052
:101A900010B511480F490160E12149024160002160
:101AA0008160C16001618161C1610C22016242619A
:101AB0000B4641620A46FFF7F7FA002801D0FEF70D
:101AC000E7FC01F03DFC012204490348FFF798FEC2
:101AD00010BD000000380140A000002003000020DD
:101AE00010B50C480A490160E1214902416000211A
:101AF0008160C16001618161C1610C22016242614A
:101B00004162FFF7F3FD002801D0FEF7C1FC10BDD4
:101B1000004400402401002010B51148017911480B
:101B2000012906D002290BD0032912D0002181708F
:101B300010BD81780129FBD001218170084605E0A4
:101B400081780229F4D002218170084600F078FDE6
:101B500010BD81780329FBD0032181700020F5E7B7
:101B60001C00002000000020FEE77047704710B501
:101B7000FEF728FF10BD70B596B030216846FEF71D
:101B800025FB00240C940D940E94142110A80F949E
:101B9000FEF71CFB10200994022504900520012665
:101BA0000095C00403960A9008950B946846FFF7C9
:101BB000B7F8002801D072B6FEE707200C9003208A
:101BC00040020F900D950E9401210CA8FEF7D4FF52
:101BD000002801D072B6FEE710A810961294FEF706
:101BE0004FFF002801D072B6FEE716B070BD7047F7
:101BF00010B50248FFF721FB10BD0000580000207F
:101C0000F0B502681D4B0124A4071D4D984203D076
:101C1000A04201D0A84203D17026B2434E6832439D
:101C2000184E194F98420DD0A0420BD0A84209D0AF
:101C3000164CA04206D0B04204D0B84202D0144C98
:101C4000A04204D103242402A243CC68224380246E
:101C5000A2434C69224302608A68C2620A688262B7
:101C6000984206D0B04204D0B84202D0084A90420E
:101C700001D10969016301214161F0BD002C0140DE
:101C800000040040004001400044014000200040AA
:101C90000048014010B5818CC90707D001684A6827
:101CA00001235B049A43836A1A434A60818C890743
:101CB00007D501684A6801231B049A43C36A1A4383
:101CC0004A60818C490707D501684A6801239B0453
:101CD0009A43036B1A434A60818C090707D5016850
:101CE0004A680123DB039A43436B1A434A60818CA1
:101CF000C90607D50268916801231B039943836BCA
:101D000019439160818C890607D501688A6801238F
:101D10005B039A43C36B1A438A60818C490612D5D0
:101D200003685A6801210905046C8A4322435A60FA
:101D3000026C8A4207D10268516803235B0599430C
:101D4000436C19435160818C090607D501684A68C4
:101D50000123DB04806C9A4302434A6010BD0000FB
:101D6000F8B50446002680300660FEF713FE0546EF
:101D700020680068124F000709D501212B46002278
:101D800049052046009700F0E7F900280DD12068AA
:101D9000006840070BD501212B460022890520460B
:101DA000009700F0D9F9002801D00320F8BD2020C9
:101DB000A067E0672666603426750020F8BD000045
:101DC000FFFFFF0110B5406A0022014640314A83FF
:101DD0004A82FFF738FB10BD10B5EFF310810122E6
:101DE00082F3108802681368FF242134A343136030
:101DF00081F31088EFF31081012282F310880268CA
:101E000093685B085B00936081F31088016E012981
:101E10000BD1EFF31081012282F31088026813685E
:101E20001024A343136081F310882021C16700218F
:101E30000166416610BD70B5014640318B8BC46FA1
:101E40000268222C04D0906908210843906170BD7B
:101E5000928C446D1A402280426D921C42654A8BDE
:101E6000521E4A834A8B002AF1D1EFF310820123DC
:101E700083F3108803681C68FF252135AC431C6080
:101E800082F31088EFF31082012383F31088036834
:101E90009C68640864009C6082F310882022C267FA
:101EA00000224266036E012B02D0FFF7DBFC70BDFF
:101EB0000266EFF31082012383F31088046825681B
:101EC00010239D43256082F310880268D469E4439F
:101ED000E40600D41362098BFFF7B3FA70BD70B546
:101EE000014640318B8BC46F0268222C04D090696C
:101EF00008210843906170BD928C1A40436D1A709E
:101F0000426D521C42654A8B521E4A834A8B002AFC
:101F1000F1D1EFF31082012383F3108803681C686A
:101F2000FF252135AC431C6082F31088EFF310824B
:101F3000012383F3108803689C68640864009C6034
:101F400082F310882022C26700224266036E012BB2
:101F500002D0FFF787FC70BD0266EFF31082012309
:101F600083F310880468256810239D43256082F35D
:101F700010880268D469E443E40600D41362098B34
:101F8000FFF75FFA70BD000070B5044680682169F4
:101F9000E26908436169002511432268084311681A
:101FA000404B194001431160216848680322120325
:101FB0009043E26810434860A169206A08432168A1
:101FC0008A680B231B029A4302438A6036492068C1
:101FD000884210D13548006B8007800F0ED0012851
:101FE00005D0022805D003280AD1022109E00421E6
:101FF00007E0082105E02E49884201D1002100E0D8
:1020000010210120E369C0032A4A2B4E834223D1C9
:10201000002906D0022907D0042907D0082937D182
:1020200008E0FEF72DFE03E0104603E0FEF738FE61
:10203000002831D0616840004A088018FEF756F841
:1020400080B201461039B14222D81B49491C0140D7
:102050000007400F08431DE0002906D0022907D0E1
:10206000042907D0082913D108E0FEF709FE03E090
:10207000104603E0FEF714FE00280DD061684A0800
:102080001018FEF733F880B201461039B14201D979
:10209000012501E02168C86000206066A06628462E
:1020A00070BD0000F369FFFF0038014000100240DE
:1020B0000044004000127A00EFFF000070B5416557
:1020C000014640310A834A83002242660123856823
:1020D0001B03FF249D4204D10569002D31D11B4C07
:1020E0002FE0002D29D08A8380210A502221C16748
:1020F000EFF31081012484F310880468A568012699
:102100003543A56081F310888168994202D1016945
:10211000002918D00E49416674210A54EFF310814A
:10212000012282F3108800680268FF2321331A43DA
:10213000026081F31088002070BD0569002D00D079
:102140007F248C83D0E70349E5E70000FF0100000E
:10215000DF1E0008371E0008FFB581B00546174690
:10216000044660350A9E55E0701C53D0FEF712FC01
:102170000499401AB04230D8002E2ED02068016851
:10218000490747D5C069C043000543D401202168F1
:10219000C0020862EFF31080012181F310882168EA
:1021A0000B68FF22A13293430B6080F31088EFF39A
:1021B0001080012181F3108821688A68520852003A
:1021C0008A6080F310882020A067E0678034206058
:1021D00000202875032005B0F0BDEFF31080012129
:1021E00081F3108821680B68FF22A13293430B60B2
:1021F00080F31088EFF31080012181F310882168AB
:102200008A68520852008A6080F310882020A067F4
:10221000E067DDE72068C1690298884304D00020A8
:10222000B842A1D00020D6E70120F9E710B5024856
:10223000FFF70AF910BD0000A00000200FB410B590
:1022400003A9044B044A029800F060F810BC08BCD3
:1022500004B01847A526000818000020F8B5040CA3
:102260008BB2264682B25E430D0C1046370C5843A3
:10227000360480190021794116466E43370C360426
:102280008019794126466E438919F8BD30B47446E9
:10229000641E2578641CAB4200D21D46635D5B0062
:1022A000E31830BC184700008307FF22DB0E9A407A
:1022B0008907090E9940002808DB830809489B001C
:1022C0001B18186890430843186070470007000FF8
:1022D0000838830804489B001B18D86990430843BA
:1022E000D861704700E400E000ED00E002E008C8BB
:1022F000121F08C1002AFAD170477047002001E080
:1023000001C1121F002AFBD170470000FFB58FB03A
:102310000F460446002606E025280AD0129A119995
:102320009047641C761C20780028F5D1304613B005
:10233000F0BD00250121A14A009500E00543641C81
:1023400023780846203B98401042F7D120782E2869
:1023500015D1042005436078641C2A280AD101CFD6
:10236000641C00900BE000990A2251433039401858
:10237000641C00902078014630390929F3D920786F
:102380006C280ED004DC4C2813D06A2812D104E04B
:1023900074280ED07A280DD10BE0012040050543AA
:1023A00007E00121090562780D43824201D16D18D1
:1023B000641C641C2078864669284AD008DC002802
:1023C000B4D058286DD0632810D0642808D140E0DC
:1023D00070286BD0732812D0752860D0782860D010
:1023E000129A704611999047761CE5E03878694654
:1023F00008720020487202A80190012003E03868AA
:1024000001900020C0433F1D69070CD5002500E066
:102410006D1C00998D420FDA8542F9DB0199495D07
:102420000029F5D108E0002500E06D1C8542FCDBA9
:102430000199495D0029F8D1761907E001980199C1
:102440000078491C0191129A119990476D1EF5D29E
:10245000B2E00A20029000216802400F0391022896
:102460000CD001CFC117844600290DDA6246084618
:1024700052420021814194462D2008E0FF1DFF08B3
:10248000FF0003CF8446EFE7280504D52B206A46DA
:10249000107401203CE0E8073AD02020F7E70A203A
:1024A00000E0102000210391029007E0102002902C
:1024B0000021042005430820039100906802400F8A
:1024C000022810D001CF0021844600200D9028075B
:1024D0001FD5704670280CD0029A1020039B4240F2
:1024E0001A430CD015E0FF1DFF08FF0003CF844600
:1024F000EBE740206A46107401200D900CE0604626
:10250000084306D030206A4610747046507402208A
:102510000D907046582804D029A001900DA80E9067
:102520000DE02CA0F9E76046039B029AFDF7F4FD4D
:10253000019B84469B5C0E9A521E0E92137060465D
:102540000843F0D10E9805A9081A203001906807B9
:1025500001D5009801E0012000900199884203DD37
:1025600001460198081A00E000200025009006E0CE
:1025700004A8129A405D119990476D1C761C0D9825
:102580008542F5DB04E0129A302011999047761CC1
:102590000099481E00900029F5DC08E00E980E997D
:1025A0000078491C0E91129A11999047761C019956
:1025B000481E01900029F1DC641CB4E609280100E2
:1025C00030313233343536373839616263646566A9
:1025D000000000003031323334353637383941426B
:1025E000434445460000000010B50D4B002806D0BE
:1025F00001280ED001460BA0FFF720FE10BD0029D8
:1026000001D0012200E0002201211846FEF7BBF9AB
:1026100010BD002901D0012200E000220221F4E7D0
:10262000000400484572726F723A206C6564202580
:1026300064206E6F7420666F756E64210D0A000051
:1026400010B50C4C012803D0022808D0002207E066
:10265000002210212046FEF796F9012205E0012212
:1026600010212046FEF78FF9002208212046FEF7B0
:102670008AF910BD0004004870B5034600200246E8
:10268000074C09E01D78060A75406D00655B000285
:102690004540521CA8B25B1C8A42F3DB70BD0000AF
:1026A0005035000813B5044B012269460348FFF773
:1026B000EFF800981CBD0000FFFF0000240100207F
:1026C00070B51D4C002120466678027B837801207E
:1026D0000D46002E05D0002B20D1E5701EE02073A2
:1026E00003E0002B1AD0E0702573E581134BE278EC
:1026F0001E78B24201D01A7001212379022B10D02A
:10270000012B15D0002B08D1A27A002A05D0002970
:1027100003D0094920310875E58670BD002ADED056
:10272000E4E7002AF9D00020FFF78AFF257170BD89
:10273000002AF8D070BD00001C000020000000201E
:10274000FEF748F9FFF717FAFFF73EF9FFF7A0F990
:10275000FFF7C6F9FFF77EF900F024FC00F0A6FDB4
:10276000FFF7DAF9FFF700F900F01AFEF6E70000CC
:10277000F8B500241F4B002A31D00C2902D21E4983
:102780001EA029E0017845780A062D04AA1885784C
:1027900046792D02AA18C5783604AD180279477A11
:1027A0001206B21886793F043602B218C6790121A2
:1027B000B218067A3606BE19877AC07A3F02BE1969
:1027C00080195E69AE4205D19D69954202D1DA69F0
:1027D000824206D008490EA0FFF730FDF8BD5C72BA
:1027E00004E004485C72203001745C8600F0B6FCA2
:1027F000F8BD00001C000020B03B00085B25735DA5
:102800006C656E677468206572726F72210D0A00C4
:102810005B25735D554944206973206E6F74206D8C
:10282000617463686564210D0A000000F0B5144608
:10283000002285B0002803D0002C04D0122303E02E
:102840003D493EA05FE006238B4202D93A4940A0B1
:1028500059E0002C02D0017801220191815C521CC8
:10286000835C09041B025918521C835C521C5918C2
:102870000291815C521C835C0902591889B2521C76
:102880000391815C521C0091002C42D0815C521C4F
:10289000835C09061B045918521C835C521C1B02E2
:1028A0005918835C521C5D18815C521C835C0906BC
:1028B0001B045918521C835C521C1B025918835C60
:1028C000521C5E18815C521C835C09061B045B1859
:1028D000521C91B2425C491C89B21202405CD2186F
:1028E00087183B46324629461EA0FFF7A7FC214821
:1028F0004169A94205D18169B14202D1C169B94298
:1029000005D00D491CA0FFF799FC05B0F0BD019959
:10291000C172184D029828610398E8800098A87247
:1029200000F01CFC002CF0D0294601202031087258
:1029300000206885E9E70000863B00085B25735DA1
:1029400064617461206973206E756C6C210D0A00DE
:102950005B25735D6C656E677468206572726F725B
:10296000210D0A007569643A20307825782578258C
:10297000780D0A001C0000205B25735D554944203A
:102980006973206E6F74206D617463686564210DD6
:102990000A00000070B50C2902D21B491BA02AE0D6
:1029A000017842780906120451188278457A120299
:1029B0005118C2782D04531801794279090612047E
:1029C00051188279012412025118C2795118027AE1
:1029D0001206AA18857AC07A2D02AA188218104801
:1029E00045699D4205D183698B4202D1C1699142FB
:1029F00004D005490BA0FFF721FC70BD0849203128
:102A00000C700021418470BD5A3B00085B25735D4A
:102A10006C656E677468206572726F72210D0A00B2
:102A20001C0000205B25735D554944206973206EAE
:102A30006F74206D617463686564210D0A00000085
:102A4000F8B5002803D0002A04D00D2303E025495F
:102A500025A032E001238B4202D9224927A02CE095
:102A600003782B49002A2BD04478857824062D043E
:102A70002C19C57886792D022C19057936042D1963
:102A80004479877A24063419C6793F04360234190A
:102A9000067A3419467A3606BE19C77A007B3F0299
:102AA000BE1980194E69AE4205D18D69A54202D189
:102AB000CC69844204D00B4916A0FFF7BFFBF8BDD8
:102AC000002B01D0022000E00120087110480123F2
:102AD00020300376002AF2D00371C8880A225043BE
:102AE000C884F8BD713B00085B25735D6461746147
:102AF000206973206E756C6C210D0A005B25735D77
:102B00006C656E677468206572726F72210D0A00C1
:102B10001C0000205B25735D554944206973206EBD
:102B20006F74206D617463686564210D0A00000094
:102B3000F8B51546002803D0002D04D00D2203E07F
:102B4000224923A032E001228A4202D91F4925A04E
:102B50002CE00178284C002D2BD042788378120687
:102B60001B049A18C37886791B029A1803793604D5
:102B70009B184279877A1206B218C6793F0436024A
:102B8000B218067AB218467A3606BE19C77A007BA2
:102B90003F02BE19801966699E4205D1A36993421E
:102BA00002D1E269824204D0084914A0FFF746FB33
:102BB000F8BD217200F0D2FA002DF9D00E490120A3
:102BC000203108730020E085F8BD00009F3B00081D
:102BD0005B25735D64617461206973206E756C6C34
:102BE000210D0A005B25735D6C656E677468206556
:102BF00072726F72210D0A001C0000205B25735D4C
:102C0000554944206973206E6F74206D6174636848
:102C10006564210D0A00000000B5134987B0CA7A27
:102C2000684602704A7A42704A69130E8370130C28
:102C3000C370130A037142718A69130E8371130CF6
:102C4000C371130A03724272C9690E230A0E82729B
:102C50000A0CC2720A0A0273417302460821B120AB
:102C600000F084FB07B000BD1C00002000B5134A33
:102C700087B0D37A69460B7048705069030E8B7029
:102C8000030CCB70030A0B7148719069030E8B71B2
:102C9000030CCB71030A0B724872D0690E23020E2B
:102CA0008A72020CCA72020A0A7348730A46092120
:102CB000B02000F05BFB07B000BD00001C0000204E
:102CC0001FB512496846CA7A0270CA7842704A69CA
:102CD000130E8370130CC370130A037142718A6957
:102CE000130E8371130CC371130A03724272C96904
:102CF0000E230A0E82720A0CC2720A0A0273417310
:102D000002460221B12000F031FB1FBD1C00002053
:102D100000B51C4887B0C27A69460A70C2784A700A
:102D200002788A700269130CCB70130A0B714A7116
:102D3000C288130A8B71CA71027A0A72427A4A7285
:102D4000827A8A724269130ECB72130C0B73130AC8
:102D50004B738A738269130ECB73130C0B74130AB3
:102D60004B748A74C0691723020ECA74020C0A7568
:102D7000020A4A7588750A460021B12000F0F6FA69
:102D800007B000BD1C00002000B5184987B0CA7A02
:102D9000684602700A69130A4370120C8270CA886E
:102DA000C270120A02718A7A42714A69130E8371E3
:102DB000130CC371130A037242728A69130E837271
:102DC000130CC372130A03734273C96912230A0EE8
:102DD00082730A0CC2730A0A027441740246042107
:102DE000B12000F0C3FA07B000BD00001C000020B5
:102DF00000B5134987B0CA7A684602700A7A4270F1
:102E00004A69130E8370130CC370130A0371427165
:102E10008A69130E8371130CC371130A0372427211
:102E2000C9690E230A0E82720A0CC2720A0A027360
:102E3000417302460621B12000F098FA07B000BDA8
:102E40001C000020F8B50446481C2060002060608B
:102E5000E160A0600D460A48214620611E461746E3
:102E6000103108A0FFF7EAF900202077AE4205DA1A
:102E7000B74203DC002F01DD6761A661F8BD0000E9
:102E8000C801002062756666657220616464723AEA
:102E90002025640D0A000000426881688A4204DD32
:102EA000C068801A4018401C7047881A7047F7B5F0
:102EB00000980099446880680026CD68A04205DB30
:102EC000001B824200DC104687B20DE0291B081867
:102ED000401C824200DC104687B2E119681C814226
:102EE00002DD3819461B761E0098BA1B00690119CD
:102EF0000198FDF752F90098324601690198C0190E
:102F0000801BFDF74AF93846FEBD10B542685218DD
:102F10004260C3685C1CA24205DB8468A24202DDF9
:102F2000D21A521E4260C26A5118C16210BDF7B572
:102F300086684168002715460446B14209DD881BB2
:102F4000401E854216DD616A121A891885B26162D7
:102F500010E02068821B5118491E8D4204DD6B1A57
:102F6000626A8DB2D21862627119814200DD0F1A55
:102F7000401EE0602069EA1B80190199FDF70DF9F8
:102F800001983A464019C11B2069FDF706F9206AED
:102F90004019206221687019814200DC401AA0604B
:102FA000FEBD00007FB507266D463C212E48FDF78B
:102FB0000DF92EA0FFF742F9FDF7F2FC2A4C6061F3
:102FC000FDF7F4FCA061FDF7F7FCE061354B002054
:102FD0004200D1180988401C80B2A952B042F7D3F0
:102FE00068460088304988420DD030A0FFF726F9A6
:102FF0001E2020610220E0800120A07200202072AB
:1030000000F0ACF814E02EA0FFF718F968464088ED
:10301000E07268460189408900040818206168460A
:103020008089E08068468088A0726846C0882072E7
:10303000214614310EC92AA0FFF700F9E17A2EA02B
:10304000FFF7FCF8A17A30A0FFF7F8F8217A33A057
:10305000FFF7F4F836A02169FFF7F0F8E18839A00E
:10306000FFF7ECF87FBD00001C0000200D0A2A2AA3
:103070002A2A2A2A2A2A2A2A2A2A2A2A2A2A2A2AB0
:103080002A2A20417070205374617274202A2A2ADF
:103090002A2A2A2A2A2A2A2A2A2A2A2A2A2A2A2A90
:1030A0002A0D0A0000F00008AAAA0000496E6974FF
:1030B0002044617461626173652121210D0A000061
:1030C0005265616420646174616261736520667237
:1030D0006F6D20666C6173682121210D0A0000006C
:1030E0004368697020757569643A203078257825C1
:1030F0007825780D0A000000616464726573733A84
:1031000020307825580D0A0069735265706F72740B
:103110003A20307825580D0A000000006C6564469E
:103120006C6173683A20307825580D0A0000000061
:103130006C6F636B44656C61793A20307825580D6B
:103140000A0000006C6F636B5265706C7944656CAB
:1031500061793A20307825580D0A0000F0B589B021
:103160006D461D4929801D490726CA7A6A808A7AD8
:10317000AA800A7AEA800A692A81120C6A81C988BF
:10318000A981FDF7DBFA002004900120144F06907E
:10319000059707A904A8FDF739FA040007D0FDF741
:1031A00085FA21460FA0FFF749F809B0F0BD60008D
:1031B0002A5AC11900230120FDF782FA002804D001
:1031C00022460E490EA0FFF739F8641CA4B2B4429F
:1031D000EDD3FDF76BFAE8E7AAAA00001C00002077
:1031E00000F00008466C61736820657261736520A9
:1031F0006572726F723A2025640D0A00C83B0008A0
:103200005B25735D777269746520646174615B2509
:10321000645D206661696C210D0A0000F8B50C46FA
:103220001646074601461D461A4619A0FFF706F83E
:10323000B02F0CD12300FFF729F809060B0D131549
:103240001B1D23250A0029463046FFF7A3FBF8BDC6
:10325000002200E0012229463046FFF7F1FBF8BDCD
:10326000002200E0012229463046FFF7DFFAF8BDD0
:10327000002200E0012229463046FFF759FCF8BD44
:10328000002200E0012229463046FFF771FAF8BD1E
:10329000636D643A2025642C2064617461206C6540
:1032A0006E6774683A2025640D0A000000B5BBB053
:1032B000642108A8FCF78AFF642121A8FCF786FF97
:1032C0001D48FFF7E9FD02041C48120C028030D0B3
:1032D000642A00D964226846828008A801460090CA
:1032E0001548FFF7E4FD21A8049002A96846FCF701
:1032F000F1FF032815D0022816D001280CD004288D
:103300000AD0052808D0002813D16846838A417B5B
:10331000007B049AFFF782FF68464089401C81B217
:1033200004E06846818801E0684601890248FFF7A9
:10333000ECFD3BB000BD00002C0600201400002076
:1033400010B5002301211A4689020248FFF77AFDD1
:1033500010BD00002C0600200A4610B501460248A8
:10336000FFF7E5FD10BD00002C06002010B59EB053
:103370006C4620726172238205A80090039200209F
:10338000A08064210098FCF721FF694602A8FCF7A1
:103390004BFFA188009800F043F81EB010BD00005C
:1033A00070B51E4C002520782646203E002805D00A
:1033B000708C002802D12570FFF7AAFC2079002824
:1033C00005D0F08C002802D12571FFF779FC207A16
:1033D000002805D0708D002802D12572FFF7D4FC9B
:1033E000207B002805D0F08D002802D12573FFF73F
:1033F000FFFC207C002805D0708E002802D12574A7
:10340000FFF70AFC207D002806D0F08E002803D1AB
:103410002575F078FFF72AFC70BD00003C00002005
:103420000A4610B50146024B0248FEF731FA10BDBC
:10343000FFFF0000A00000200000000000000000CE
:10344000010203040607080900000000010203044A
:1034500000316253C4F5A697B988DBEA7D4C1F2E74
:103460004372211087B6E5D4FACB98A93E0F5C6D64
:1034700086B7E4D5427320113F0E5D6CFBCA99A854
:10348000C5F4A796013063527C4D1E2FB889DAEB44
:103490003D0C5F6EF9C89BAA84B5E6D74071221334
:1034A0007E4F1C2DBA8BD8E9C7F6A5940332615024
:1034B000BB8AD9E87F4E1D2C02336051C6F7A49514
:1034C000F8C99AAB3C0D5E6F4170231285B4E7D604
:1034D0007A4B1829BE8FDCEDC3F2A19007366554F4
:1034E00039085B6AFDCC9FAE80B1E2D344752617E4
:1034F000FCCD9EAF38095A6B4574271681B0E3D2D4
:10350000BF8EDDEC7B4A192806376455C2F3A091C3
:103510004776251483B2E1D0FECF9CAD3A0B5869B3
:1035200004356657C0F1A293BD8CDFEE79481B2AA3
:10353000C1F0A3920534675678491A2BBC8DDEEF93
:1035400082B3E0D1467724153B0A5968FFCE9DAC83
:1035500000002110422063308440A550C660E7700F
:10356000088129914AA16BB18CC1ADD1CEE1EFF1B7
:103570003112100273325222B5529442F772D6625F
:10358000399318837BB35AA3BDD39CC3FFF3DEE307
:103590006224433420040114E664C774A4448554AF
:1035A0006AA54BB528850995EEE5CFF5ACC58DD557
:1035B0005336722611163006D776F6669556B446FF
:1035C0005BB77AA719973887DFF7FEE79DD7BCC7A7
:1035D000C448E5588668A77840086118022823384F
:1035E000CCC9EDD98EE9AFF9488969990AA92BB9F7
:1035F000F55AD44AB77A966A711A500A333A122A9F
:10360000FDDBDCCBBFFB9EEB799B588B3BBB1AAB46
:10361000A66C877CE44CC55C222C033C600C411CEE
:10362000AEED8FFDECCDCDDD2AAD0BBD688D499D96
:10363000977EB66ED55EF44E133E322E511E700E3E
:103640009FFFBEEFDDDFFCCF1BBF3AAF599F788FE6
:103650008891A981CAB1EBA10CD12DC14EF16FE1C6
:103660008010A100C230E3200450254046706760FE
:10367000B9839893FBA3DAB33DC31CD37FE35EF316
:10368000B1029012F322D23235421452776256724E
:10369000EAB5CBA5A89589856EF54FE52CD50DC566
:1036A000E234C324A014810466744764245405449E
:1036B000DBA7FAB79987B8975FE77EF71DC73CD7B6
:1036C000D326F2369106B0165766767615463456EE
:1036D0004CD96DC90EF92FE9C899E9898AB9ABA906
:1036E0004458654806782768C018E1088238A3283E
:1036F0007DCB5CDB3FEB1EFBF98BD89BBBAB9ABB56
:10370000754A545A376A167AF10AD01AB32A923A8D
:103710002EFD0FED6CDD4DCDAABD8BADE89DC98DA5
:10372000267C076C645C454CA23C832CE01CC10CDD
:103730001FEF3EFF5DCF7CDF9BAFBABFD98FF89FF5
:10374000176E367E554E745E932EB23ED10EF01E2D
:1037500000000000963007772C610EEEBA510999EF
:1037600019C46D078FF46A7035A563E9A395649E4B
:103770003288DB0EA4B8DC791EE9D5E088D9D2976F
:103780002B4CB609BD7CB17E072DB8E7911DBF90CB
:103790006410B71DF220B06A4871B9F3DE41BE84EF
:1037A0007DD4DA1AEBE4DD6D51B5D4F4C785D3834B
:1037B00056986C13C0A86B647AF962FDECC9658AEF
:1037C0004F5C0114D96C0663633D0FFAF50D088D4B
:1037D000C8206E3B5E10694CE44160D5727167A2EF
:1037E000D1E4033C47D4044BFD850DD26BB50AA54B
:1037F000FAA8B5356C98B242D6C9BBDB40F9BCAC6F
:10380000E36CD832755CDF45CF0DD6DC593DD1ABCA
:10381000AC30D9263A00DE518051D7C81661D0BFEE
:10382000B5F4B42123C4B3569995BACF0FA5BDB84A
:103830009EB802280888055FB2D90CC624E90BB1EE
:10384000877C6F2F114C6858AB1D61C13D2D66B64A
:103850009041DC760671DB01BC20D2982A10D5EFAE
:103860008985B1711FB5B606A5E4BF9F33D4B8E80A
:10387000A2C9077834F9000F8EA8099618980EE1AE
:10388000BB0D6A7F2D3D6D08976C6491015C63E60A
:10389000F4516B6B62616C1CD83065854E0062F22E
:1038A000ED95066C7BA5011BC1F4088257C40FF58A
:1038B000C6D9B06550E9B712EAB8BE8B7C88B9FCAE
:1038C000DF1DDD62492DDA15F37CD38C654CD4FB0A
:1038D0005861B24DCE51B53A7400BCA3E230BBD4AE
:1038E00041A5DF4AD795D83D6DC4D1A4FBF4D6D30A
:1038F0006AE96943FCD96E34468867ADD0B860DAAE
:10390000732D0444E51D03335F4C0AAAC97C0DDD09
:103910003C710550AA41022710100BBE86200CC92D
:1039200025B56857B3856F2009D466B99FE461CE89
:103930000EF9DE5E98C9D9292298D0B0B4A8D7C7AD
:10394000173DB359810DB42E3B5CBDB7AD6CBAC009
:103950002083B8EDB6B3BF9A0CE2B6039AD2B17425
:103960003947D5EAAF77D29D1526DB048316DC7381
:10397000120B63E3843B64943E6A6D0DA85A6A7A25
:103980000BCF0EE49DFF099327AE000AB19E077D81
:1039900044930FF0D2A3088768F2011EFEC20669A5
:1039A0005D5762F7CB67658071366C19E7066B6E01
:1039B000761BD4FEE02BD3895A7ADA10CC4ADD6725
:1039C0006FDFB9F9F9EFBE8E43BEB717D58EB06081
:1039D000E8A3D6D67E93D1A1C4C2D83852F2DF4F25
:1039E000F167BBD16757BCA6DD06B53F4B36B24881
:1039F000DA2B0DD84C1B0AAFF64A0336607A044125
:103A0000C3EF60DF55DF67A8EF8E6E3179BE694680
:103A10008CB361CB1A8366BCA0D26F2536E26852A4
:103A200095770CCC03470BBBB91602222F26055500
:103A3000BE3BBAC5280BBDB2925AB42B046AB35C24
:103A4000A7FFD7C231CFD0B58B9ED92C1DAEDE5B80
:103A5000B0C2649B26F263EC9CA36A750A936D0264
:103A6000A906099C3F360EEB8567077213570005C0
:103A7000824ABF95147AB8E2AE2BB17B381BB60CE4
:103A80009B8ED2920DBED5E5B7EFDC7C21DFDB0B40
:103A9000D4D2D38642E2D4F1F8B3DD686E83DA1F64
:103AA000CD16BE815B26B9F6E177B06F7747B718C0
:103AB000E65A0888706A0FFFCA3B06665C0B011164
:103AC000FF9E658F69AE62F8D3FF6B6145CF6C16C0
:103AD00078E20AA0EED20DD75483044EC2B3033964
:103AE000612667A7F71660D04D476949DB776E3EC0
:103AF0004A6AD1AEDC5AD6D9660BDF40F03BD837E4
:103B000053AEBCA9C59EBBDE7FCFB247E9FFB5303F
:103B10001CF2BDBD8AC2BACA3093B353A6A3B42463
:103B20000536D0BA9306D7CD2957DE54BF67D923BF
:103B30002E7A66B3B84A61C4021B685D942B6F2A63
:103B400037BE0BB4A18E0CC31BDF055A8DEF022DBF
:103B5000436F6D556E7061636B006F6E436D6451A2
:103B600075657279446576696365537461747573BC
:103B7000006F6E436D645365744465766963655385
:103B80007461747573006F6E436D644D6F64696624
:103B90007944657669636553657474696E67006F0F
:103BA0006E436D645365744C6564466C6173680064
:103BB0006F6E436D64436C72446576416C61726DE7
:103BC00053657474696E6700757365725F646174C0
:103BD00061626173655F736176650000FC3B00089C
:103BE000000000201C000000EC220008183C000827
:103BF0001C000020440A0000FC2200080000000015
:103C000001000000040000000000000000127A0023
:083C10000000000000000000AC
:04000005080000BD32
:00000001FF
