:020000040800F2
:10000000B8090020D1000008BD130008A51200089F
:1000100000000000000000000000000000000000E0
:10002000000000000000000000000000C1130008F4
:100030000000000000000000BF130008C313000808
:10004000E3000008E3000008E3000008E300000804
:10005000E3000008E3000008E3000008690300086B
:10006000E3000008E3000008E3000008E3000008E4
:10007000E3000008E3000008E3000008E3000008D4
:10008000E3000008E300000800000000E3000008AF
:10009000E3000008E3000008E3000008E3000008B4
:1000A000E3000008E3000008E3000008CD190008A1
:1000B000E300000800000000E30000080348854654
:1000C00000F0A0F800480047291C0008B8090020EB
:1000D0000448804704480047FEE7FEE7FEE7FEE7E6
:1000E000FEE7FEE735140008BD00000830B50B46FA
:1000F000014600202022012409E00D46D5409D4202
:1001000005D31D469540491B254695404019154687
:10011000521E002DF1DC30BDF0B51FB406460020A4
:1001200082B005464024019100901BE001992246CF
:100130000F46304600F020F8049A059B801A99413A
:1001400010D310461946224600F04BF8361A8F415C
:100150000197224601200021009F00F042F8381844
:100160004D4100902046641E0028DFDC019B009872
:100170002946324607B0F0BD10B5202A04DB0846F8
:10018000203AD040002110BD0B46D340D04020245F
:10019000A21A91400843194610BD03460B439B0722
:1001A00003D009E008C9121F08C0042AFAD203E0EC
:1001B0000B780370401C491C521EF9D27047D2B212
:1001C00001E00270401C491EFBD270470022F6E796
:1001D00010B513460A4604461946FFF7F0FF2046BD
:1001E00010BD10B5202A04DB0146203A91400020C2
:1001F00010BD914020239C1A0346E34019439040D0
:1002000010BD0000064C0125064E05E0E36807CC52
:100210002B430C3C98471034B442F7D3FFF752FFFE
:10022000102600083026000870B59AB00E4605006A
:1002300025D0002E23D0B1216C4621702978617021
:100240002889010AA170297AE1702A8901A86968C0
:10025000FFF7A3FF2989081D85B2601CC91C01F0A6
:10026000BFFC010A61556D1CA9B26054491C88B2DB
:10027000AA212154401C81B20020B0800BE005204F
:100280001AB070BDB5883368225C5A55B288521CCA
:10029000401CB28080B28842F4D30020F0E7000016
:1002A000F0B50D46044699B0002664212D48FFF7AD
:1002B0008DFF00202B4903E02268125C0A54401C89
:1002C000A2888242F8D8002004E02368195CB02993
:1002D00005D0401C8242F8D8032019B0F0BD80B28E
:1002E000411C03E05F5CAA2F04D0491C8A42F9D864
:1002F00028801AE00904090CFAD0421C92B26F4619
:1003000006E023689B5CBB55761C521CB6B292B2C9
:100310008A42F6D37A781302BA7828809A1894B26F
:10032000601D864203D0491C29800220D5E7B819F8
:1003300069802038817FC07F0902081886B2E11CDD
:10034000384601F04DFCB04201D00120C5E76846B7
:1003500000782871AC812246791DA868FFF71DFF3F
:100360000020BAE72405002010B5402000F050F826
:10037000802000F04DF8FF20013000F049F810BD5A
:1003800072B6FEE730B5014620314B780022022BD1
:1003900004D0042383630A70012030BD03681C6805
:1003A0000E25AC431C6003681C68640864001C6074
:1003B0000123056C1C46C06BAC4044604B700A7056
:1003C000002030BD70B50024014620314A78022A51
:1003D00003D004218163012416E0026813680E250E
:1003E000AB431360026813685B085B001360012273
:1003F000056C1346AB40C56B6B604A7000220A70F7
:10040000416B002900D08847204670BD704700002E
:1004100010B504494A69024202D04861FFF7F6FF6D
:1004200010BD000000040140F8B50023032401259D
:10043000BAE02E469E40B44632407CD00E79B607D4
:10044000B60F012E01D0022E17D186682746B64678
:100450005E00B74000967646BE43B646CF68009E23
:10046000B74076463743876046686746BE430F7994
:10047000FF06FF0F9F40374347600E79F643B607EC
:100480000ED0C6682746B4465E00B646B7406646FC
:10049000BE43B4468F687646B74066463743C7606A
:1004A0000E79B607B60F022E14D1DE08B600361844
:1004B0000096366A5F07B446FE0E0F27B646B74071
:1004C0006646BE43B4460F697646B7406646374334
:1004D000009E376206682746B4465E00B646B740BF
:1004E0006646BE430F79B446BF07BF0F7646B74096
:1004F0006646374307604E68B603B60F53D02D4F9C
:10050000BE692E43BE61BE699F08F607F60F2A4EEC
:10051000BF00BE190096B6680F27B4469E07360F77
:10052000B646B7406646BE430927FF06B446B84202
:1005300002D1002710E036E0204FB84201D1012758
:100540000AE01F4FB84201D1022705E01D4FB84213
:1005500001D1032700E005277646B74066463743BA
:10056000009EB760184E36684F689643FF0300D56B
:100570001643154F3E607E684F689643BF0300D513
:100580001643114F7E60BE684F689643FF0200D548
:1005900016430D4FBE60FE684F689643BF0200D5FC
:1005A0001643094AD6605B1C0A681646DE4000D036
:1005B0003FE7F8BD00100240000001400004004881
:1005C00000080048000C004800040140002A01D047
:1005D0008161704781627047014880687047000000
:1005E0000400002002488168027889188160704701
:1005F0000400002010B50648016810221143016074
:10060000032000F007F800F027F8002010BD0000DC
:100610000020024070B504460D4D7D202978C000B1
:10062000FFF764FD01460B480068FFF75FFD00F02F
:100630008FFB002809D1042C07D200222146401E3E
:1006400000F02AF800206C6070BD012070BD000031
:10065000040000201000002008B50848816901222C
:1006600011438161816911400091C26901040A430B
:10067000C261C0690840009008BD0000001002403F
:10068000002805DBC106C90E012088400149086029
:100690007047000000E100E010B501F0C7F910BD9F
:1006A000F8B505460068394CC00352D5E06900260C
:1006B000C00007D4E16920040143E161E169014020
:1006C0000126009132480168C90510D401688215DD
:1006D00011430160FFF780FF074604E0FFF77CFF4E
:1006E000C01B642824D82A480068C005F6D5206AB3
:1006F00003273F02384020D06968394081421CD02E
:10070000206A226AB843012109040A432262226A4C
:100710008A4322622062C0070FD0FFF75DFF00907E
:1007200008E0FFF759FF0099411A1A48814201D9A0
:100730000320F8BD206A8007F3D5206A6968B843B2
:1007400008432062002E04D0E169012000078143A4
:10075000E1612878C00705D0206BA9688008800077
:10076000084320632878800605D5206B1021884334
:10077000E968084320632888400505D5206B40219F
:1007800088432969084320630020F8BD0010024017
:100790000070004088130000F8B50F46060059D0DD
:1007A0003A4D2868C007C00FB84209D228684008EF
:1007B0004000384328602868C007C00FB84249D1BC
:1007C0003068334C81070CD5400704D56068072199
:1007D0000902084360606068F0218843B1680843FB
:1007E00060603078C00726D0706801280ED021687C
:1007F00002280ED0890700292CDA6168890889004F
:1008000001436160FFF7E8FE00900DE02168890375
:10081000F1E78901EFE7FFF7DFFE0099411A1D4874
:10082000814201D90320F8BD60680C21084071683D
:1008300089008842EFD12868C007C00FB8420BD9A1
:10084000286840084000384328602868C007C00F67
:10085000B84201D00120F8BD3078400706D5606865
:10086000072109028843F1680843606000F028F816
:100870006168094A0906090F515CC84007490860C8
:100880000320FFF7C7FE0020F8BD00000020024053
:100890000010024088130000F81E0008100000201D
:1008A0000448054900684968044A4905490F515CF4
:1008B000C84070471000002000100240081F0008C8
:1008C00010B514A30FCB88B06C460FC415A30FCB83
:1008D0000FC4184A51680C200B4603401648042BDD
:1008E00016D0082B14D18B021B0F6C46E45CD26A25
:1008F00004AB1207120F9A5CC90305D500231946F1
:10090000FFF70AFC214601E020460C4901F076F889
:1009100008B010BD02030405060708090A0B0C0DF8
:100920000E0F10100102030405060708090A0B0C3C
:100930000D0E0F100010024000127A0000093D0059
:10094000FEB5040070D02078DC4DC0074AD068683E
:100950000007800F012807D068680007800F022871
:1009600009D16868C00306D5286880033AD5606855
:100970000028E7D036E06168012914D00120800406
:10098000002901D0052914D02A68012109048A43CD
:100990002A602968814329606068002816D0FFF723
:1009A0001BFE06460EE02868012109040843286062
:1009B000F2E7296801432960F5E7FFF70DFE801B88
:1009C00064286ED828688003F7D50BE0FFF704FE93
:1009D000064604E0FFF700FE801B6428F1D8286873
:1009E0008003F7D420780126800700283CDA686865
:1009F0000007800F07D068680007800F022809D120
:100A00006868C00306D42868800716D5E068012806
:100A10000AD112E0E0680028286816D03043286028
:100A2000FFF7DAFD074605E043E1FFF7D5FDC01B00
:100A30000228C6D828688007F7D52868F821884397
:100A40002169C900084328600EE040084000286082
:100A5000FFF7C2FD074604E0FFF7BEFDC01B0228FA
:100A6000AFD828688007F7D42078000722D5E0693E
:100A70000028686A0ED030436862FFF7ADFD074674
:100A800004E0FFF7A9FDC01B02289AD8686A800716
:100A9000F7D50FE0400840006862FFF79DFD07466C
:100AA00005E09DE0FFF798FDC01B022889D8686A21
:100AB0008007F7D4207804274007002860DA002058
:100AC0000190E869C00008D4E969B8060143E9610A
:100AD000E969014001200091019079480168C90548
:100AE00011D40168821511430160FFF775FD009074
:100AF00005E0FFF771FD0099401A642870D870482E
:100B00000068C005F5D5A06801280AD0002801D0EA
:100B1000052810D0286A400840002862286AB84397
:100B200001E0286A30432862A068002812D0FFF74D
:100B300053FD00900AE0286A38432862F1E7FFF786
:100B40004BFD0099411A5F48814249D8286A8007C5
:100B5000F5D50DE0FFF740FD009006E0FFF73CFD06
:100B60000099411A574881423AD8286A8007F5D43B
:100B70000198002804D0E969012000078143E96158
:100B80002078C00635D5606901280CD0401D686BFF
:100B900023D038436863686B400840006863FFF700
:100BA0001BFD064622E0686B38436863686B304380
:100BB0006863FFF711FD064604E0FFF70DFD801B9B
:100BC00002285BD8686B8007F7D5686BF8218843EB
:100BD000A169C900084368630BE0B8436863F4E7A0
:100BE0004CE0FFF7F9FC801B022847D8686B8007B0
:100BF000F7D4206A00285ED069680907890F0229A6
:100C000042D0012636060228286805D0B043286065
:100C1000FFF7E2FC044633E0B0432860FFF7DCFC5A
:100C2000074604E0FFF7D8FCC01B022826D8286836
:100C30008001F7D4E86AE16A000900010843E8622C
:100C4000616AA06A084369683D221204914308431F
:100C50006860286830432860FFF7BEFC044604E063
:100C6000FFF7BAFC001B022808D828688001F7D5D6
:100C700021E0FFF7B1FC001B022801D90320FEBDD3
:100C800028688001F5D416E00128F8D06868E96A80
:100C900001221204636A02409A420AD10907E26AF9
:100CA000090F914205D10F2189040840A16A8842A9
:100CB00001D00120FEBD0020FEBD0000001002405A
:100CC0000070004088130000F8B51D4616460F4618
:100CD000040003D0A06F002802D007E00120F8BD77
:100CE000002174200155204600F0D6F92420A06789
:100CF00020680168490849000160204600F014FDA1
:100D00000128ECD0606A002802D0204600F093FB56
:100D100020688168012292031143816021688868FC
:100D200052009043384388607105280422680843C4
:100D30001168064B194001431160206801680122C7
:100D400011430160204600F0DBFBF8BDFFFF00FC13
:100D5000094910B5401E884201D9012010BD074C39
:100D600060610321081F00F061FE0020A0610720E0
:100D70002061002010BD0000FFFFFF0000E000E048
:100D80007047704770470000F8B502680446D069A4
:100D900011689668A24B03401D462023002D75D094
:100DA000F707A04DFF0FBC460D402F436DD02546E1
:100DB000C7078035002F06D0CF0504D5012717625D
:100DC0002A683A432A60820708D5F20706D02768C6
:100DD00002223A622A6804273A432A60420708D569
:100DE000F20706D02668042232622A6802263243BD
:100DF0002A6002070AD50A461A406646324305D0E1
:100E00002668082232622E6816432E60020508D535
:100E10004A0106D501222668D20232622A681A43A4
:100E20002A602A68002A39D0800606D5880604D5AB
:100E3000616E002901D020468847286821688968AA
:100E4000490602D4282108422DD0204600F094FB08
:100E500021688868400622D5EFF31080012282F3D2
:100E600010888B68402293438B6080F31088206F3A
:100E7000002814D06C494163206FFFF7A3FA0028C3
:100E80000CD0206F416B08E000E012E0850610D521
:100E90008D060ED5616EA8E020468847F8BD204635
:100EA000FFF770FFF8BD2046FFF76CFF00202860B9
:100EB000F8BD256E012D7DD1C5067BD5CD0679D532
:100EC00010261662226890682546400640350028A4
:100ED00045DA216F086840680004000CE8D02F8BC9
:100EE0008742E5D968838869202833D0EFF31080E2
:100EF000012181F3108811683701B943116080F333
:100F00001088EFF31080012181F3108821688A682E
:100F1000520852008A6080F31088EFF3108001219C
:100F200081F3108821688A684027BA438A6080F379
:100F30001088E36700202066EFF31080012181F321
:100F4000108821680A68B2430A6080F31088206F15
:100F5000FFF718FA288B698B401A81B231E0288B91
:100F6000698B401A81B2688B0028A1D000299FD0DC
:100F7000EFF31080012585F310881568FF272137CE
:100F8000BD43156080F31088EFF31080012282F3D7
:100F90001088226895686D086D00956080F3108850
:100FA000E367002020666066EFF31080012282F381
:100FB000108800E009E022681368B343136080F3EF
:100FC00010882046FFF7DCFEF8BDC50208D5750283
:100FD00006D50120000510622046FFF7D2FEF8BDBD
:100FE000050606D50D0604D5A16E002900D053E7ED
:100FF000F8BD4006FCD54806FAD52046EFF310812F
:10100000012484F3108815684024A543156081F3FA
:10101000108883670021816600F043F9F8BD000065
:101020000F080000200100046515000810B5040039
:1010300003D0A06F002802D007E0012010BD0021DE
:1010400074200155204600F027F82420A06720686E
:101050000168490849000160204600F065FB01284D
:10106000ECD0606A002802D0204600F0E4F9206845
:1010700041680922D20291434160206881682A2296
:10108000914381602068016801221143016020467C
:1010900000F036FA10BD0000F0B587B00446142108
:1010A0006846FFF793F8234F012126680022224863
:1010B0004904022303240125BE4221D18769CE10B1
:1010C0003743876187693740059746690E43466114
:1010D00040690193084005900B204002009002AE49
:1010E00034C609206946C006FFF79EF90022114662
:1010F0001B20FFF7D1FA1B20FFF7C2FA07B0F0BDA3
:101100000E4FBE42FAD1C6690E43C661C6690E4093
:10111000059646690E434661406901930840059073
:101120000C20009002AE34C609206946C006FFF7C5
:101130007BF9E3E700380140001002400044004022
:1011400070B5C36F202B2BD100290BD0002A09D0FA
:10115000012483682403A34206D10369002B03D131
:10116000CB0701D0012070BD034660331C7D012CEC
:1011700016D001241C7500230366046863681B02F3
:101180000BD5EFF31083012585F310882568012620
:10119000B6063543256083F3108800F05FFB70BD11
:1011A000022070BD10B500680649884208D10121AF
:1011B000054800F071FE012203490448FFF7C0FF13
:1011C00010BD000000380140000000201C0000207D
:1011D000FFB50446806F83B017460D4620285ED1C8
:1011E000002D0AD0002F08D0A168C001814207D18C
:1011F0002069002804D1E80702D0012007B0F0BD23
:10120000204660300090007D012848D000980121E0
:1012100001750020802108512120A067FFF7DCF92B
:10122000264640360190378277820120A16800036C
:10123000814202D12069002805D02F46002500995F
:101240000020087511E00027F9E7002280212046E0
:1012500000F052FB002815D1002F15D021683878F6
:1012600008857F1C708A401E7082708A019B00284E
:1012700006980090E9D100224021204600F03CFB76
:10128000002808D00320B9E728882168C005C00DD0
:101290000885AD1CE6E72020A0670020AEE702200D
:1012A000ACE77047FEE7000030B587B01421684610
:1012B000FEF78CFF1D484269012149040A4342613F
:1012C00042690A400592426949000A434261406905
:1012D000174D08400590012203212846FFF776F9B3
:1012E000002218212846FFF771F91B2000900120E9
:1012F0000190032000240390029469462846FFF7DA
:1013000093F8FF20C130009031200004019069461D
:1013100002942846FFF788F8002201210720FFF7F2
:10132000BBF90720FFF7ACF907B030BD0010024051
:101330000004004810B511480F490160E12149023D
:10134000416000218160C16001618161C1610C2245
:10135000016242610B4641620A46FFF7B5FC002874
:1013600001D0FFF70DF800F08BFD0122044903487E
:10137000FFF7E6FE10BD0000003801401C00002011
:101380000000002010B50C480A490160E121490223
:10139000416000218160C16001618161C1610C22F5
:1013A000016242614162FFF741FE002801D0FEF771
:1013B000E7FF10BD00440040A0000020FEE770479A
:1013C000704710B5FFF70EF910BD30B595B030215C
:1013D0006846FEF7FBFE00240C940D940E94142135
:1013E00010A80F94FEF7F2FE0220009001251020B5
:1013F0000395049008946846FFF7A2FA002801D0EC
:1014000072B6FEE707200C900D940E9400210F9405
:101410000CA8FFF7C1F9002801D072B6FEE710A8AA
:1014200010951294FFF73CF9002801D072B6FEE740
:1014300015B030BD704710B5818CC90707D0016861
:101440004A6801235B049A43836A1A434A60818C89
:10145000890707D501684A6801231B049A43C36AB8
:101460001A434A60818C490707D501684A680123FD
:101470009B049A43036B1A434A60818C090707D582
:1014800001684A680123DB039A43436B1A434A60AD
:10149000818CC90607D50268916801231B03994313
:1014A000836B19439160818C890607D501688A682E
:1014B00001235B039A43C36B1A438A60818C4906FC
:1014C00012D503685A6801210905046C8A43224336
:1014D0005A60026C8A4207D10268516803235B0597
:1014E0009943436C19435160818C090607D5016803
:1014F0004A680123DB04806C9A4302434A6010BDB2
:10150000F8B50446002680300660FFF765F805460A
:1015100020680068124F000709D501212B460022E0
:1015200049052046009700F0E7F900280DD1206812
:10153000006840070BD501212B4600228905204673
:10154000009700F0D9F9002801D00320F8BD202031
:10155000A067E0672666603426750020F8BD0000AD
:10156000FFFFFF0110B5406A0022014640314A8367
:101570004A82FFF707FC10BD10B5EFF3108101227E
:1015800082F3108802681368FF242134A343136098
:1015900081F31088EFF31081012282F31088026832
:1015A00093685B085B00936081F31088016E0129EA
:1015B0000BD1EFF31081012282F3108802681368C7
:1015C0001024A343136081F310882021C1670021F8
:1015D0000166416610BD70B5014640318B8BC46F0A
:1015E0000268222C04D0906908210843906170BDE4
:1015F000928C446D1A402280426D921C42654A8B47
:10160000521E4A834A8B002AF1D1EFF31082012344
:1016100083F3108803681C68FF252135AC431C60E8
:1016200082F31088EFF31082012383F3108803689C
:101630009C68640864009C6082F310882022C26762
:1016400000224266036E012B02D0FFF7ABFD70BD96
:101650000266EFF31082012383F310880468256883
:1016600010239D43256082F310880268D469E44307
:10167000E40600D41362098BFFF782FB70BD70B5DE
:10168000014640318B8BC46F0268222C04D09069D4
:1016900008210843906170BD928C1A40436D1A7006
:1016A000426D521C42654A8B521E4A834A8B002A65
:1016B000F1D1EFF31082012383F3108803681C68D3
:1016C000FF252135AC431C6082F31088EFF31082B4
:1016D000012383F3108803689C68640864009C609D
:1016E00082F310882022C26700224266036E012B1B
:1016F00002D0FFF757FD70BD0266EFF310820123A1
:1017000083F310880468256810239D43256082F3C5
:1017100010880268D469E443E40600D41362098B9C
:10172000FFF72EFB70BD000070B50446806821698C
:10173000E269084361690025114322680843116882
:10174000404B19400143116021684868032212038D
:101750009043E26810434860A169206A0843216809
:101760008A680B231B029A4302438A603649206829
:10177000884210D13548006B8007800F0ED00128B9
:1017800005D0022805D003280AD1022109E004214E
:1017900007E0082105E02E49884201D1002100E040
:1017A00010210120E369C0032A4A2B4E834223D132
:1017B000002906D0022907D0042907D0082937D1EB
:1017C00008E0FFF76DF803E0104603E0FFF778F854
:1017D000002831D0616840004A088018FEF786FC76
:1017E00080B201461039B14222D81B49491C014040
:1017F0000007400F08431DE0002906D0022907D04A
:10180000042907D0082913D108E0FFF749F803E0BD
:10181000104603E0FFF754F800280DD061684A082D
:101820001018FEF763FC80B201461039B14201D9AD
:10183000012501E02168C86000206066A066284696
:1018400070BD0000F369FFFF003801400010024046
:101850000044004000127A00EFFF000070B54165BF
:10186000014640310A834A8300224266012385688B
:101870001B03FF249D4204D10569002D31D11B4C6F
:101880002FE0002D29D08A8380210A502221C167B0
:10189000EFF31081012484F310880468A568012601
:1018A0003543A56081F310888168994202D10169AE
:1018B000002918D00E49416674210A54EFF31081B3
:1018C000012282F3108800680268FF2321331A4343
:1018D000026081F31088002070BD0569002D00D0E2
:1018E0007F248C83D0E70349E5E70000FF01000077
:1018F0007F160008D7150008FFB581B005461746CA
:10190000044660350A9E55E0701C53D0FEF764FE15
:101910000499401AB04230D8002E2ED020680168B9
:10192000490747D5C069C043000543D40120216859
:10193000C0020862EFF31080012181F31088216852
:101940000B68FF22A13293430B6080F31088EFF302
:101950001080012181F3108821688A6852085200A2
:101960008A6080F310882020A067E06780342060C0
:1019700000202875032005B0F0BDEFF31080012191
:1019800081F3108821680B68FF22A13293430B601A
:1019900080F31088EFF31080012181F31088216813
:1019A0008A68520852008A6080F310882020A0675D
:1019B000E067DDE72068C1690298884304D0002011
:1019C000B842A1D00020D6E70120F9E710B50248BF
:1019D000FFF7DAF910BD00001C0000200FB410B5AD
:1019E00003A9044B044A029800F052F810BC08BC4A
:1019F00004B018470D1C000818000020F8B5040CAE
:101A00008BB2264682B25E430D0C1046370C58430B
:101A1000360480190021794116466E43370C36048E
:101A20008019794126466E438919F8BD8307FF2244
:101A3000DB0E9A408907090E9940002808DB8308CD
:101A400009489B001B1818689043084318607047AA
:101A50000007000F0838830804489B001B18D8694A
:101A600090430843D861704700E400E000ED00E0D7
:101A700002E008C8121F08C1002AFAD17047704757
:101A8000002001E001C1121F002AFBD170470000B5
:101A9000FFB58DB00446002506E025280AD0109A2F
:101AA0000F999047641C6D1C20780028F5D12846BA
:101AB00011B0F0BD00270121484A009700E007431C
:101AC000641C23780846203B98401042F7D12078C8
:101AD0002E2817D1042007436078641C2A280CD1D3
:101AE0000E98641C02C800910E900BE000990A2227
:101AF000514330394018641C009020780146303939
:101B00000929F3D920780028D1D0642808D0692881
:101B100006D075281ED0109A0F9990476D1C5BE077
:101B20000A200E99019001C90E91002802DA404264
:101B30002D2102E0390504D52B216A4611720121BD
:101B400003E0F90704D02021F7E70BAE0B910DE07D
:101B50000021FAE70A200E99019001C90E91F7E7DA
:101B60000199FEF7C3FA3031761E31700028F7D1A3
:101B700003A8801B20300190780701D5009801E070
:101B8000012000900199884201DD401A00E0002008
:101B90000027009006E002A8109AC05D0F999047B8
:101BA0006D1C7F1C0B988742F5DB04E0109A3020F7
:101BB0000F9990476D1C0099481E00900029F5DC94
:101BC00005E03078109A761C0F9990476D1C0199AA
:101BD000481E01900029F4DC641C65E70928010017
:101BE00070B5034600200246074C09E01D78060A3E
:101BF00075406D00655B00024540521CA8B25B1C3D
:101C00008A42F3DB70BD00001020000813B5044BBE
:101C1000012269460348FFF7DBFA00981CBD00006B
:101C2000FFFF0000A000002008B50EA000680024FF
:101C30000090FEF7DFFCFFF7C8FBFFF735FBFFF76F
:101C400079FBFFF79FFB00F0D3F8002CFBD10124B8
:101C500003226946204600F029F900F0C9F800F097
:101C6000C7F8F0E701020300F8B50446481C2060FD
:101C700000206060E160A0600D460A4821462061B6
:101C80001E461746103108A0FFF7A8FE0020207757
:101C9000AE4205DAB74203DC002F01DD6761A661C1
:101CA000F8BD00002401002062756666657220613F
:101CB0006464723A2025640D0A000000426881685D
:101CC0008A4204DDC068801A4018401C7047881A98
:101CD0007047F7B500980099446880680026CD6881
:101CE000A04205DB001B824200DC104687B20DE0FB
:101CF000291B0818401C824200DC104687B2E119FB
:101D0000681C814202DD3819461B761E0098BA1BFA
:101D1000006901190198FEF740FA009832460169FE
:101D20000198C019801BFEF738FA3846FEBD10B581
:101D3000426852184260C3685C1CA24205DB84689A
:101D4000A24202DDD21A521E4260C26A5118C1621A
:101D500010BDF7B586684168002715460446B142B4
:101D600009DD881B401E854216DD616A121A89183A
:101D700085B2616210E02068821B5118491E8D42B5
:101D800004DD6B1A626A8DB2D218626271198142E7
:101D900000DD0F1A401EE0602069EA1B80190199DE
:101DA000FEF7FBF901983A464019C11B2069FEF77E
:101DB000F4F9206A4019206221687019814200DC20
:101DC000401AA060FEBD000010B5014601A0FFF75B
:101DD00005FE10BD636D643A2025642C2064617497
:101DE00061206C656E6774683A2025640D0A0000F6
:101DF00000B5B9B0642106A8FEF7E8F964211FA870
:101E0000FEF7E4F91C48FFF759FF02041B48120CC7
:101E100002802FD0642A00D964226846828206A8F4
:101E2000014604901448FFF754FF1FA8029069462A
:101E300004A8FEF735FA032814D0022815D001288B
:101E40000BD0042809D0052807D0002812D16846F5
:101E5000828900790299FFF7B7FF68464088401CE5
:101E600081B204E06846818A01E068460188024840
:101E7000FFF75DFF39B000BD880500201400002089
:101E800010B5002301211A4689020248FFF7ECFE33
:101E900010BD0000880500200A4610B50146024822
:101EA000FFF757FF10BD00008805002000B59FB068
:101EB0006B4618721A8205A8039100900020988042
:101EC00064210098FEF782F9694602A8FEF7ACF992
:101ED0006B469988009800F003F81FB000BD000021
:101EE0000A4610B50146024B0248FFF771F910BDD2
:101EF000FFFF00001C0000200000000000000000A8
:101F0000010203040607080900000000010203049F
:101F100000316253C4F5A697B988DBEA7D4C1F2EC9
:101F20004372211087B6E5D4FACB98A93E0F5C6DB9
:101F300086B7E4D5427320113F0E5D6CFBCA99A8A9
:101F4000C5F4A796013063527C4D1E2FB889DAEB99
:101F50003D0C5F6EF9C89BAA84B5E6D74071221389
:101F60007E4F1C2DBA8BD8E9C7F6A5940332615079
:101F7000BB8AD9E87F4E1D2C02336051C6F7A49569
:101F8000F8C99AAB3C0D5E6F4170231285B4E7D659
:101F90007A4B1829BE8FDCEDC3F2A1900736655449
:101FA00039085B6AFDCC9FAE80B1E2D34475261739
:101FB000FCCD9EAF38095A6B4574271681B0E3D229
:101FC000BF8EDDEC7B4A192806376455C2F3A09119
:101FD0004776251483B2E1D0FECF9CAD3A0B586909
:101FE00004356657C0F1A293BD8CDFEE79481B2AF9
:101FF000C1F0A3920534675678491A2BBC8DDEEFE9
:1020000082B3E0D1467724153B0A5968FFCE9DACD8
:1020100000002110422063308440A550C660E77064
:10202000088129914AA16BB18CC1ADD1CEE1EFF10C
:102030003112100273325222B5529442F772D662B4
:10204000399318837BB35AA3BDD39CC3FFF3DEE35C
:102050006224433420040114E664C774A444855404
:102060006AA54BB528850995EEE5CFF5ACC58DD5AC
:102070005336722611163006D776F6669556B44654
:102080005BB77AA719973887DFF7FEE79DD7BCC7FC
:10209000C448E5588668A7784008611802282338A4
:1020A000CCC9EDD98EE9AFF9488969990AA92BB94C
:1020B000F55AD44AB77A966A711A500A333A122AF4
:1020C000FDDBDCCBBFFB9EEB799B588B3BBB1AAB9C
:1020D000A66C877CE44CC55C222C033C600C411C44
:1020E000AEED8FFDECCDCDDD2AAD0BBD688D499DEC
:1020F000977EB66ED55EF44E133E322E511E700E94
:102100009FFFBEEFDDDFFCCF1BBF3AAF599F788F3B
:102110008891A981CAB1EBA10CD12DC14EF16FE11B
:102120008010A100C230E320045025404670676053
:10213000B9839893FBA3DAB33DC31CD37FE35EF36B
:10214000B1029012F322D2323542145277625672A3
:10215000EAB5CBA5A89589856EF54FE52CD50DC5BB
:10216000E234C324A01481046674476424540544F3
:10217000DBA7FAB79987B8975FE77EF71DC73CD70B
:10218000D326F2369106B016576676761546345643
:102190004CD96DC90EF92FE9C899E9898AB9ABA95B
:1021A0004458654806782768C018E1088238A32893
:1021B0007DCB5CDB3FEB1EFBF98BD89BBBAB9ABBAB
:1021C000754A545A376A167AF10AD01AB32A923AE3
:1021D0002EFD0FED6CDD4DCDAABD8BADE89DC98DFB
:1021E000267C076C645C454CA23C832CE01CC10C33
:1021F0001FEF3EFF5DCF7CDF9BAFBABFD98FF89F4B
:10220000176E367E554E745E932EB23ED10EF01E82
:1022100000000000963007772C610EEEBA51099944
:1022200019C46D078FF46A7035A563E9A395649EA0
:102230003288DB0EA4B8DC791EE9D5E088D9D297C4
:102240002B4CB609BD7CB17E072DB8E7911DBF9020
:102250006410B71DF220B06A4871B9F3DE41BE8444
:102260007DD4DA1AEBE4DD6D51B5D4F4C785D383A0
:1022700056986C13C0A86B647AF962FDECC9658A44
:102280004F5C0114D96C0663633D0FFAF50D088DA0
:10229000C8206E3B5E10694CE44160D5727167A244
:1022A000D1E4033C47D4044BFD850DD26BB50AA5A0
:1022B000FAA8B5356C98B242D6C9BBDB40F9BCACC4
:1022C000E36CD832755CDF45CF0DD6DC593DD1AB20
:1022D000AC30D9263A00DE518051D7C81661D0BF44
:1022E000B5F4B42123C4B3569995BACF0FA5BDB8A0
:1022F0009EB802280888055FB2D90CC624E90BB144
:10230000877C6F2F114C6858AB1D61C13D2D66B69F
:102310009041DC760671DB01BC20D2982A10D5EF03
:102320008985B1711FB5B606A5E4BF9F33D4B8E85F
:10233000A2C9077834F9000F8EA8099618980EE103
:10234000BB0D6A7F2D3D6D08976C6491015C63E65F
:10235000F4516B6B62616C1CD83065854E0062F283
:10236000ED95066C7BA5011BC1F4088257C40FF5DF
:10237000C6D9B06550E9B712EAB8BE8B7C88B9FC03
:10238000DF1DDD62492DDA15F37CD38C654CD4FB5F
:102390005861B24DCE51B53A7400BCA3E230BBD403
:1023A00041A5DF4AD795D83D6DC4D1A4FBF4D6D35F
:1023B0006AE96943FCD96E34468867ADD0B860DA03
:1023C000732D0444E51D03335F4C0AAAC97C0DDD5F
:1023D0003C710550AA41022710100BBE86200CC983
:1023E00025B56857B3856F2009D466B99FE461CEDF
:1023F0000EF9DE5E98C9D9292298D0B0B4A8D7C703
:10240000173DB359810DB42E3B5CBDB7AD6CBAC05E
:102410002083B8EDB6B3BF9A0CE2B6039AD2B1747A
:102420003947D5EAAF77D29D1526DB048316DC73D6
:10243000120B63E3843B64943E6A6D0DA85A6A7A7A
:102440000BCF0EE49DFF099327AE000AB19E077DD6
:1024500044930FF0D2A3088768F2011EFEC20669FA
:102460005D5762F7CB67658071366C19E7066B6E56
:10247000761BD4FEE02BD3895A7ADA10CC4ADD677A
:102480006FDFB9F9F9EFBE8E43BEB717D58EB060D6
:10249000E8A3D6D67E93D1A1C4C2D83852F2DF4F7A
:1024A000F167BBD16757BCA6DD06B53F4B36B248D6
:1024B000DA2B0DD84C1B0AAFF64A0336607A04417A
:1024C000C3EF60DF55DF67A8EF8E6E3179BE6946D6
:1024D0008CB361CB1A8366BCA0D26F2536E26852FA
:1024E00095770CCC03470BBBB91602222F26055556
:1024F000BE3BBAC5280BBDB2925AB42B046AB35C7A
:10250000A7FFD7C231CFD0B58B9ED92C1DAEDE5BD5
:10251000B0C2649B26F263EC9CA36A750A936D02B9
:10252000A906099C3F360EEB856707721357000515
:10253000824ABF95147AB8E2AE2BB17B381BB60C39
:102540009B8ED2920DBED5E5B7EFDC7C21DFDB0B95
:10255000D4D2D38642E2D4F1F8B3DD686E83DA1FB9
:10256000CD16BE815B26B9F6E177B06F7747B71815
:10257000E65A0888706A0FFFCA3B06665C0B0111B9
:10258000FF9E658F69AE62F8D3FF6B6145CF6C1615
:1025900078E20AA0EED20DD75483044EC2B30339B9
:1025A000612667A7F71660D04D476949DB776E3E15
:1025B0004A6AD1AEDC5AD6D9660BDF40F03BD83739
:1025C00053AEBCA9C59EBBDE7FCFB247E9FFB53095
:1025D0001CF2BDBD8AC2BACA3093B353A6A3B424B9
:1025E0000536D0BA9306D7CD2957DE54BF67D92315
:1025F0002E7A66B3B84A61C4021B685D942B6F2AB9
:1026000037BE0BB4A18E0CC31BDF055A8DEF022D14
:1026100030260008000000201C000000701A00088E
:102620004C2600081C0000209C090000801A0008AD
:102630000000000001000000040000000000000095
:0C26400000127A00000000000000000002
:04000005080000BD32
:00000001FF
